:020000040800F2
:1000000000500020150D0008650D0008650D000862
:10001000650D0008650D0008650D00080000000072
:10002000000000000000000000000000650D000856
:10003000650D000800000000650D0008650D000852
:10004000650D0008650D0008650D0008650D0008C8
:10005000650D0008650D0008650D0008650D0008B8
:10006000650D0008650D0008650D0008650D0008A8
:10007000650D0008650D0008650D0008650D000898
:10008000650D0008650D0008650D0008650D000888
:10009000650D0008650D0008650D0008650D000878
:1000A000650D0008650D0008650D0008650D000868
:1000B000650D0008650D0008650D0008650D000858
:1000C000650D0008650D0008650D0008650D000848
:1000D000650D0008650D0008650D0008650D000838
:1000E000650D0008650D000800000000650D0008A2
:1000F000650D0008650D0008650D0008650D000818
:10010000650D0008650D0008650D0008650D000807
:10011000650D0008650D0008650D0008650D0008F7
:10012000650D0008650D0008650D0008650D0008E7
:1001300010B5054C237833B9044B13B10448AFF321
:1001400000800123237010BD00000020000000008B
:10015000B00D000808B5034B1BB103490348AFF3CA
:10016000008008BD0000000004000020B00D000861
:1001700080B500AF00F05EF90221022000F076F9B0
:100180000421022000F072F900F0CBF9432000F0C6
:1001900009FAFBE780B483B000AF0346FB710B465E
:1001A000BB7113467B71FB79022B00F2B680BB79E1
:1001B0000F2B00F2B2807B790F2B00F2AE80BB795F
:1001C000072B52D8FB79022B37D0022B00F3A680E5
:1001D000002B02D0012B18D0A0E0534B1B68BA793A
:1001E00092000F2101FA02F2D24311464E4A0B400F
:1001F00013604D4B1B687979BA79920001FA02F2CB
:100200001146494A0B43136088E0484B1B68BA7992
:1002100092000F2101FA02F2D2431146434A0B40E9
:100220001360424B1B687979BA79920001FA02F2A5
:1002300011463E4A0B43136070E03D4B1B68BA7990
:1002400092000F2101FA02F2D2431146384A0B40C4
:100250001360374B1B687979BA79920001FA02F280
:100260001146334A0B43136058E0BB790F2B54D827
:10027000BB79083BBB71FB79022B36D0022B4DDCDE
:10028000002B02D0012B18D048E02A4B1B68BA790A
:1002900092000F2101FA02F2D2431146254A0B4087
:1002A0001360244B1B687979BA79920001FA02F243
:1002B0001146204A0B43136030E01F4B1B68BA798C
:1002C00092000F2101FA02F2D24311461A4A0B4062
:1002D0001360194B1B687979BA79920001FA02F21E
:1002E0001146154A0B43136018E0144B1B68BA798A
:1002F00092000F2101FA02F2D24311460F4A0B403D
:1003000013600E4B1B687979BA79920001FA02F2F8
:1003100011460A4A0B43136000E000BF00BF0C37D0
:10032000BD4680BC704700BF00080140000C014082
:100330000010014004080140040C01400410014079
:1003400080B483B000AF0346FB710B46BB7113460C
:100350007B71FB79022B61D8BB790F2B5ED87B793F
:10036000002B2DD1FB79022B1ED0022B57DC002B4A
:1003700002D0012B0CD052E02B4B1B68BA79012123
:1003800001FA02F2D2431146274A0B40136046E0BD
:10039000264B1B68BA79012101FA02F2D2431146B9
:1003A000224A0B4013603AE0214B1B68BA790121C5
:1003B00001FA02F2D24311461D4A0B4013602EE0AF
:1003C0007B79012B2AD1FB79022B1CD0022B26DC56
:1003D000002B02D0012B0BD021E0134B1B68BA7904
:1003E000012101FA02F211460F4A0B43136016E095
:1003F0000E4B1B68BA79012101FA02F211460B4A31
:100400000B4313600BE00A4B1B68BA79012101FA18
:1004100002F21146064A0B43136000E000BF00BF22
:100420000C37BD4680BC70470C0801400C0C0140E5
:100430000C10014080B400AF0A4B1B68094A43F01E
:1004400001031360084B1B68074A23F00103136084
:10045000054B1B68044A23F00203136000BFBD462E
:1004600080BC7047001002400410024080B483B08A
:1004700000AF03460A46FB711346BB71BB791F2BC5
:100480002AD8FB79022B1CD0022B25DC002B02D0B2
:10049000012B0BD020E0134B1B68BA79012101FA24
:1004A00002F211460F4A0B43136015E00E4B1B6816
:1004B000BA79012101FA02F211460B4A0B4313608B
:1004C0000AE00A4B1B68BA79012101FA02F21146CF
:1004D000064A0B43136000BF00BF0C37BD4680BC0B
:1004E000704700BF141002401C1002401810024058
:1004F00080B485B000AF78600023FB6003E000BFEC
:10050000FB680133FB607B684FF4FA7202FB03F374
:10051000FA689A42F3D300BF00BF1437BD4680BCCF
:10052000704780B500AF022201210020FFF732FEA4
:10053000022202210020FFF72DFE022203210020CB
:10054000FFF728FE022204210020FFF723FE0222EB
:1005500005210020FFF71EFE022206210020FFF7E2
:1005600019FE022207210020FFF714FE02220821B3
:100570000020FFF70FFE022209210020FFF70AFEEC
:1005800002220A210020FFF705FE00220921002097
:10059000FFF7D6FE00220A210020FFF7D1FE00BFA0
:1005A00080BD000080B584B000AF0346FB71FB79CD
:1005B000632B00F2AB83FA79CF4BA3FB0213D9086C
:1005C0000B469B000B445B00D31AFB72FB79CA4AB3
:1005D000A2FB0323DB08BB720023FB6091E3FB7AE1
:1005E000092B00F2B48101A252F823F0150600088D
:1005F00067060008B90600080B0700085D07000839
:10060000AF0700080108000853080008A508000803
:10061000FD080008012201210020FFF791FE0122C0
:1006200002210020FFF78CFE012203210020FFF7AA
:1006300087FE012204210020FFF782FE012205210E
:100640000020FFF77DFE012206210020FFF778FE43
:10065000002207210020FFF773FE0022082100205E
:10066000FFF76EFE73E1002201210020FFF768FE14
:10067000012202210020FFF763FE01220321002056
:10068000FFF75EFE002204210020FFF759FE002242
:1006900005210020FFF754FE002206210020FFF76D
:1006A0004FFE002207210020FFF74AFE002208210A
:1006B0000020FFF745FE4AE1012201210020FFF75B
:1006C0003FFE012202210020FFF73AFE0022032113
:1006D0000020FFF735FE012204210020FFF730FE45
:1006E000012205210020FFF72BFE00220621002019
:1006F000FFF726FE012207210020FFF721FE00223E
:1007000008210020FFF71CFE21E101220121002029
:10071000FFF716FE012202210020FFF711FE012241
:1007200003210020FFF70CFE012204210020FFF727
:1007300007FE002205210020FFF702FE002206210D
:100740000020FFF7FDFD012207210020FFF7F8FD43
:10075000002208210020FFF7F3FDF8E0002201212C
:100760000020FFF7EDFD012202210020FFF7E8FD48
:10077000012203210020FFF7E3FD002204210020D5
:10078000FFF7DEFD002205210020FFF7D9FD012241
:1007900006210020FFF7D4FD012207210020FFF7EA
:1007A000CFFD002208210020FFF7CAFDCFE0012283
:1007B00001210020FFF7C4FD002202210020FFF7E5
:1007C000BFFD012203210020FFF7BAFD0122042111
:1007D0000020FFF7B5FD002205210020FFF7B0FD46
:1007E000012206210020FFF7ABFD01220721002096
:1007F000FFF7A6FD002208210020FFF7A1FDA6E0DB
:10080000012201210020FFF79BFD00220221002090
:10081000FFF796FD012203210020FFF791FD012241
:1008200004210020FFF78CFD012205210020FFF7A5
:1008300087FD012206210020FFF782FD012207210A
:100840000020FFF77DFD002208210020FFF778FD42
:100850007DE0012201210020FFF772FD012202212B
:100860000020FFF76DFD012203210020FFF768FD46
:10087000002204210020FFF763FD00220521002053
:10088000FFF75EFD002206210020FFF759FD002240
:1008900007210020FFF754FD002208210020FFF768
:1008A0004FFD54E0012201210020FFF749FD012204
:1008B00002210020FFF744FD012203210020FFF761
:1008C0003FFD012204210020FFF73AFD012205210E
:1008D0000020FFF735FD012206210020FFF730FD43
:1008E000012207210020FFF72BFD00220821002014
:1008F000FFF726FD2BE000BFCDCCCCCC012201219F
:100900000020FFF71DFD012202210020FFF718FD46
:10091000012203210020FFF713FD01220421002002
:10092000FFF70EFD002205210020FFF709FD01223F
:1009300006210020FFF704FD012207210020FFF718
:10094000FFFC002208210020FFF7FAFC00BF012273
:1009500009210020FFF7F4FC00220A210020FFF704
:10096000EFFC4FF49670FFF7C3FD00220921002031
:10097000FFF7E6FCBB7A092B00F2B28101A252F824
:1009800023F000BFAD090008FF090008510A000864
:10099000A30A0008F50A0008470B0008990B000895
:1009A000EB0B00083D0C00088F0C00080122012110
:1009B0000020FFF7C5FC012202210020FFF7C0FC48
:1009C000012203210020FFF7BBFC012204210020AB
:1009D000FFF7B6FC012205210020FFF7B1FC012240
:1009E00006210020FFF7ACFC002207210020FFF7C2
:1009F000A7FC002208210020FFF7A2FC70E10022E2
:100A000001210020FFF79CFC012202210020FFF7BA
:100A100097FC012203210020FFF792FC0022042111
:100A20000020FFF78DFC002205210020FFF788FC45
:100A3000002206210020FFF783FC0022072100206E
:100A4000FFF77EFC002208210020FFF779FC47E138
:100A5000012201210020FFF773FC01220221002066
:100A6000FFF76EFC002203210020FFF769FC012242
:100A700004210020FFF764FC012205210020FFF77C
:100A80005FFC002206210020FFF75AFC012207210B
:100A90000020FFF755FC002208210020FFF750FC42
:100AA0001EE1012201210020FFF74AFC0122022160
:100AB0000020FFF745FC012203210020FFF740FC46
:100AC000012204210020FFF73BFC00220521002029
:100AD000FFF736FC002206210020FFF731FC01223F
:100AE00007210020FFF72CFC002208210020FFF73F
:100AF00027FCF5E0002201210020FFF721FC012264
:100B000002210020FFF71CFC012203210020FFF737
:100B100017FC002204210020FFF712FC002205210F
:100B20000020FFF70DFC012206210020FFF708FC42
:100B3000012207210020FFF703FC002208210020EA
:100B4000FFF7FEFBCCE0012201210020FFF7F8FBBC
:100B5000002202210020FFF7F3FB012203210020E5
:100B6000FFF7EEFB012204210020FFF7E9FB002242
:100B700005210020FFF7E4FB012206210020FFF7FA
:100B8000DFFB012207210020FFF7DAFB002208210A
:100B90000020FFF7D5FBA3E0012201210020FFF791
:100BA000CFFB002202210020FFF7CAFB0122032114
:100BB0000020FFF7C5FB012204210020FFF7C0FB46
:100BC000012205210020FFF7BBFB012206210020A6
:100BD000FFF7B6FB012207210020FFF7B1FB00223F
:100BE00008210020FFF7ACFB7AE001220121002060
:100BF000FFF7A6FB012202210020FFF7A1FB012243
:100C000003210020FFF79CFB002204210020FFF7B6
:100C100097FB002205210020FFF792FB002206210E
:100C20000020FFF78DFB002207210020FFF788FB43
:100C3000002208210020FFF783FB51E0012201215F
:100C40000020FFF77DFB012202210020FFF778FB47
:100C5000012203210020FFF773FB01220421002061
:100C6000FFF76EFB012205210020FFF769FB01223F
:100C700006210020FFF764FB012207210020FFF777
:100C80005FFB002208210020FFF75AFB28E0012229
:100C900001210020FFF754FB012202210020FFF771
:100CA0004FFB012203210020FFF74AFB0122042110
:100CB0000020FFF745FB002205210020FFF740FB45
:100CC000012206210020FFF73BFB01220721002023
:100CD000FFF736FB002208210020FFF731FB00BFA1
:100CE00001220A210020FFF72BFB4FF49670FFF73B
:100CF000FFFB00220A210020FFF722FBFB680133E3
:100D0000FB60FB68312B7FF66AAC00E000BF103758
:100D1000BD4680BD0D488546AFF300800C480D49A7
:100D20000D4A002302E0D458C4500433C4188C4246
:100D3000F9D30A4A0A4C002301E013600432A242AC
:100D4000FBD300F011F8FFF713FAFEE70050002084
:100D50000000002000000020D00D0008000000204E
:100D60001C000020FEE7000070B500260C4D0D4C65
:100D7000641BA410A64209D100F01AF800260A4DFF
:100D80000A4C641BA410A64205D170BD55F8043B63
:100D900098470136EEE755F8043B98470136F2E7ED
:100DA000C80D0008C80D0008C80D0008CC0D0008CB
:100DB000F8B500BFF8BC08BC9E467047F8B500BF48
:080DC000F8BC08BC9E46704718
:040DC80055010008C9
:040DCC0031010008E9
:0400000508000D15CD
:00000001FF
